{
    "contractName": "Tiles",
    "abi": [
        {
            "inputs": [],
            "stateMutability": "nonpayable",
            "type": "constructor"
        },
        {
            "anonymous": false,
            "inputs": [
                {
                    "indexed": true,
                    "internalType": "address",
                    "name": "owner",
                    "type": "address"
                },
                {
                    "indexed": true,
                    "internalType": "address",
                    "name": "approved",
                    "type": "address"
                },
                {
                    "indexed": true,
                    "internalType": "uint256",
                    "name": "tokenId",
                    "type": "uint256"
                }
            ],
            "name": "Approval",
            "type": "event"
        },
        {
            "anonymous": false,
            "inputs": [
                {
                    "indexed": true,
                    "internalType": "address",
                    "name": "owner",
                    "type": "address"
                },
                {
                    "indexed": true,
                    "internalType": "address",
                    "name": "operator",
                    "type": "address"
                },
                {
                    "indexed": false,
                    "internalType": "bool",
                    "name": "approved",
                    "type": "bool"
                }
            ],
            "name": "ApprovalForAll",
            "type": "event"
        },
        {
            "anonymous": false,
            "inputs": [
                {
                    "indexed": true,
                    "internalType": "address",
                    "name": "previousOwner",
                    "type": "address"
                },
                {
                    "indexed": true,
                    "internalType": "address",
                    "name": "newOwner",
                    "type": "address"
                }
            ],
            "name": "OwnershipTransferred",
            "type": "event"
        },
        {
            "anonymous": false,
            "inputs": [
                {
                    "indexed": true,
                    "internalType": "address",
                    "name": "from",
                    "type": "address"
                },
                {
                    "indexed": true,
                    "internalType": "address",
                    "name": "to",
                    "type": "address"
                },
                {
                    "indexed": true,
                    "internalType": "uint256",
                    "name": "tokenId",
                    "type": "uint256"
                }
            ],
            "name": "Transfer",
            "type": "event"
        },
        {
            "inputs": [
                {
                    "internalType": "address",
                    "name": "to",
                    "type": "address"
                },
                {
                    "internalType": "uint256",
                    "name": "tokenId",
                    "type": "uint256"
                }
            ],
            "name": "approve",
            "outputs": [],
            "stateMutability": "nonpayable",
            "type": "function"
        },
        {
            "inputs": [
                {
                    "internalType": "address",
                    "name": "owner",
                    "type": "address"
                }
            ],
            "name": "balanceOf",
            "outputs": [
                {
                    "internalType": "uint256",
                    "name": "",
                    "type": "uint256"
                }
            ],
            "stateMutability": "view",
            "type": "function",
            "constant": true
        },
        {
            "inputs": [
                {
                    "internalType": "uint256",
                    "name": "tokenId",
                    "type": "uint256"
                }
            ],
            "name": "getApproved",
            "outputs": [
                {
                    "internalType": "address",
                    "name": "",
                    "type": "address"
                }
            ],
            "stateMutability": "view",
            "type": "function",
            "constant": true
        },
        {
            "inputs": [
                {
                    "internalType": "address",
                    "name": "owner",
                    "type": "address"
                },
                {
                    "internalType": "address",
                    "name": "operator",
                    "type": "address"
                }
            ],
            "name": "isApprovedForAll",
            "outputs": [
                {
                    "internalType": "bool",
                    "name": "",
                    "type": "bool"
                }
            ],
            "stateMutability": "view",
            "type": "function",
            "constant": true
        },
        {
            "inputs": [],
            "name": "maxSupply",
            "outputs": [
                {
                    "internalType": "uint256",
                    "name": "",
                    "type": "uint256"
                }
            ],
            "stateMutability": "view",
            "type": "function",
            "constant": true
        },
        {
            "inputs": [],
            "name": "mintingLocked",
            "outputs": [
                {
                    "internalType": "bool",
                    "name": "",
                    "type": "bool"
                }
            ],
            "stateMutability": "view",
            "type": "function",
            "constant": true
        },
        {
            "inputs": [],
            "name": "name",
            "outputs": [
                {
                    "internalType": "string",
                    "name": "",
                    "type": "string"
                }
            ],
            "stateMutability": "view",
            "type": "function",
            "constant": true
        },
        {
            "inputs": [],
            "name": "owner",
            "outputs": [
                {
                    "internalType": "address",
                    "name": "",
                    "type": "address"
                }
            ],
            "stateMutability": "view",
            "type": "function",
            "constant": true
        },
        {
            "inputs": [
                {
                    "internalType": "uint256",
                    "name": "tokenId",
                    "type": "uint256"
                }
            ],
            "name": "ownerOf",
            "outputs": [
                {
                    "internalType": "address",
                    "name": "",
                    "type": "address"
                }
            ],
            "stateMutability": "view",
            "type": "function",
            "constant": true
        },
        {
            "inputs": [],
            "name": "renounceOwnership",
            "outputs": [],
            "stateMutability": "nonpayable",
            "type": "function"
        },
        {
            "inputs": [
                {
                    "internalType": "address",
                    "name": "from",
                    "type": "address"
                },
                {
                    "internalType": "address",
                    "name": "to",
                    "type": "address"
                },
                {
                    "internalType": "uint256",
                    "name": "tokenId",
                    "type": "uint256"
                }
            ],
            "name": "safeTransferFrom",
            "outputs": [],
            "stateMutability": "nonpayable",
            "type": "function"
        },
        {
            "inputs": [
                {
                    "internalType": "address",
                    "name": "from",
                    "type": "address"
                },
                {
                    "internalType": "address",
                    "name": "to",
                    "type": "address"
                },
                {
                    "internalType": "uint256",
                    "name": "tokenId",
                    "type": "uint256"
                },
                {
                    "internalType": "bytes",
                    "name": "_data",
                    "type": "bytes"
                }
            ],
            "name": "safeTransferFrom",
            "outputs": [],
            "stateMutability": "nonpayable",
            "type": "function"
        },
        {
            "inputs": [
                {
                    "internalType": "address",
                    "name": "operator",
                    "type": "address"
                },
                {
                    "internalType": "bool",
                    "name": "approved",
                    "type": "bool"
                }
            ],
            "name": "setApprovalForAll",
            "outputs": [],
            "stateMutability": "nonpayable",
            "type": "function"
        },
        {
            "inputs": [
                {
                    "internalType": "bytes4",
                    "name": "interfaceId",
                    "type": "bytes4"
                }
            ],
            "name": "supportsInterface",
            "outputs": [
                {
                    "internalType": "bool",
                    "name": "",
                    "type": "bool"
                }
            ],
            "stateMutability": "view",
            "type": "function",
            "constant": true
        },
        {
            "inputs": [],
            "name": "symbol",
            "outputs": [
                {
                    "internalType": "string",
                    "name": "",
                    "type": "string"
                }
            ],
            "stateMutability": "view",
            "type": "function",
            "constant": true
        },
        {
            "inputs": [
                {
                    "internalType": "uint256",
                    "name": "index",
                    "type": "uint256"
                }
            ],
            "name": "tokenByIndex",
            "outputs": [
                {
                    "internalType": "uint256",
                    "name": "",
                    "type": "uint256"
                }
            ],
            "stateMutability": "view",
            "type": "function",
            "constant": true
        },
        {
            "inputs": [
                {
                    "internalType": "address",
                    "name": "owner",
                    "type": "address"
                },
                {
                    "internalType": "uint256",
                    "name": "index",
                    "type": "uint256"
                }
            ],
            "name": "tokenOfOwnerByIndex",
            "outputs": [
                {
                    "internalType": "uint256",
                    "name": "",
                    "type": "uint256"
                }
            ],
            "stateMutability": "view",
            "type": "function",
            "constant": true
        },
        {
            "inputs": [],
            "name": "totalSupply",
            "outputs": [
                {
                    "internalType": "uint256",
                    "name": "",
                    "type": "uint256"
                }
            ],
            "stateMutability": "view",
            "type": "function",
            "constant": true
        },
        {
            "inputs": [],
            "name": "totalTokens",
            "outputs": [
                {
                    "internalType": "uint256[]",
                    "name": "",
                    "type": "uint256[]"
                }
            ],
            "stateMutability": "view",
            "type": "function",
            "constant": true
        },
        {
            "inputs": [
                {
                    "internalType": "address",
                    "name": "from",
                    "type": "address"
                },
                {
                    "internalType": "address",
                    "name": "to",
                    "type": "address"
                },
                {
                    "internalType": "uint256",
                    "name": "tokenId",
                    "type": "uint256"
                }
            ],
            "name": "transferFrom",
            "outputs": [],
            "stateMutability": "nonpayable",
            "type": "function"
        },
        {
            "inputs": [
                {
                    "internalType": "address",
                    "name": "newOwner",
                    "type": "address"
                }
            ],
            "name": "transferOwnership",
            "outputs": [],
            "stateMutability": "nonpayable",
            "type": "function"
        },
        {
            "inputs": [
                {
                    "internalType": "address",
                    "name": "player",
                    "type": "address"
                },
                {
                    "internalType": "string",
                    "name": "mytokenURI",
                    "type": "string"
                }
            ],
            "name": "mint",
            "outputs": [
                {
                    "internalType": "uint256",
                    "name": "",
                    "type": "uint256"
                }
            ],
            "stateMutability": "nonpayable",
            "type": "function"
        },
        {
            "inputs": [
                {
                    "internalType": "uint256",
                    "name": "tokenId",
                    "type": "uint256"
                }
            ],
            "name": "tokenURI",
            "outputs": [
                {
                    "internalType": "string",
                    "name": "",
                    "type": "string"
                }
            ],
            "stateMutability": "view",
            "type": "function",
            "constant": true
        },
        {
            "inputs": [
                {
                    "internalType": "address",
                    "name": "_holder",
                    "type": "address"
                }
            ],
            "name": "walletOfHolder",
            "outputs": [
                {
                    "internalType": "uint256[]",
                    "name": "",
                    "type": "uint256[]"
                }
            ],
            "stateMutability": "view",
            "type": "function",
            "constant": true
        },
        {
            "inputs": [],
            "name": "asd",
            "outputs": [
                {
                    "internalType": "uint256[]",
                    "name": "",
                    "type": "uint256[]"
                }
            ],
            "stateMutability": "view",
            "type": "function",
            "constant": true
        },
        {
            "inputs": [
                {
                    "internalType": "address",
                    "name": "_holder",
                    "type": "address"
                }
            ],
            "name": "urisOfHolder",
            "outputs": [
                {
                    "internalType": "string[]",
                    "name": "",
                    "type": "string[]"
                }
            ],
            "stateMutability": "view",
            "type": "function",
            "constant": true
        },
        {
            "inputs": [],
            "name": "lockMinting",
            "outputs": [],
            "stateMutability": "nonpayable",
            "type": "function"
        },
        {
            "inputs": [
                {
                    "internalType": "uint256",
                    "name": "tokenId",
                    "type": "uint256"
                }
            ],
            "name": "burn",
            "outputs": [],
            "stateMutability": "nonpayable",
            "type": "function"
        }
    ],
    "bytecode": "0x6080604052600a600c553480156200001657600080fd5b506040518060400160405280600581526020017f54696c65730000000000000000000000000000000000000000000000000000008152506040518060400160405280600481526020017f54494c450000000000000000000000000000000000000000000000000000000081525081600090805190602001906200009b929190620001ab565b508060019080519060200190620000b4929190620001ab565b505050620000d7620000cb620000dd60201b60201c565b620000e560201b60201c565b620002c0565b600033905090565b6000600a60009054906101000a900473ffffffffffffffffffffffffffffffffffffffff16905081600a60006101000a81548173ffffffffffffffffffffffffffffffffffffffff021916908373ffffffffffffffffffffffffffffffffffffffff1602179055508173ffffffffffffffffffffffffffffffffffffffff168173ffffffffffffffffffffffffffffffffffffffff167f8be0079c531659141344cd1fd0a4f28419497f9722a3daafe3b4186f6b6457e060405160405180910390a35050565b828054620001b9906200028a565b90600052602060002090601f016020900481019282620001dd576000855562000229565b82601f10620001f857805160ff191683800117855562000229565b8280016001018555821562000229579182015b82811115620002285782518255916020019190600101906200020b565b5b5090506200023891906200023c565b5090565b5b80821115620002575760008160009055506001016200023d565b5090565b7f4e487b7100000000000000000000000000000000000000000000000000000000600052602260045260246000fd5b60006002820490506001821680620002a357607f821691505b60208210811415620002ba57620002b96200025b565b5b50919050565b613ba880620002d06000396000f3fe608060405234801561001057600080fd5b50600436106101c45760003560e01c80634f6ccce7116100f9578063a22cb46511610097578063d0def52111610071578063d0def52114610507578063d5abeb0114610537578063e985e9c514610555578063f2fde38b14610585576101c4565b8063a22cb4651461049f578063b88d4fde146104bb578063c87b56dd146104d7576101c4565b8063715018a6116100d3578063715018a61461043b5780637e1c0c09146104455780638da5cb5b1461046357806395d89b4114610481576101c4565b80634f6ccce7146103ab5780636352211e146103db57806370a082311461040b576101c4565b806323b872dd1161016657806342842e0e1161014057806342842e0e1461032557806342966c681461034157806346a190ad1461035d5780634936cd361461038d576101c4565b806323b872dd146102a95780632f745c59146102c5578063362fcfb0146102f5576101c4565b8063095ea7b3116101a2578063095ea7b3146102475780630d7982ad146102635780630fc50ebb1461026d57806318160ddd1461028b576101c4565b806301ffc9a7146101c957806306fdde03146101f9578063081812fc14610217575b600080fd5b6101e360048036038101906101de91906125c2565b6105a1565b6040516101f0919061260a565b60405180910390f35b61020161061b565b60405161020e91906126be565b60405180910390f35b610231600480360381019061022c9190612716565b6106ad565b60405161023e9190612784565b60405180910390f35b610261600480360381019061025c91906127cb565b610732565b005b61026b61084a565b005b6102756108dc565b604051610282919061260a565b60405180910390f35b6102936108ef565b6040516102a0919061281a565b60405180910390f35b6102c360048036038101906102be9190612835565b6108fc565b005b6102df60048036038101906102da91906127cb565b61095c565b6040516102ec919061281a565b60405180910390f35b61030f600480360381019061030a9190612888565b610a01565b60405161031c91906129c1565b60405180910390f35b61033f600480360381019061033a9190612835565b610b43565b005b61035b60048036038101906103569190612716565b610b63565b005b61037760048036038101906103729190612888565b610be5565b6040516103849190612aa1565b60405180910390f35b610395610c93565b6040516103a29190612aa1565b60405180910390f35b6103c560048036038101906103c09190612716565b610ca2565b6040516103d2919061281a565b60405180910390f35b6103f560048036038101906103f09190612716565b610d13565b6040516104029190612784565b60405180910390f35b61042560048036038101906104209190612888565b610dc5565b604051610432919061281a565b60405180910390f35b610443610e7d565b005b61044d610f05565b60405161045a9190612aa1565b60405180910390f35b61046b610f5d565b6040516104789190612784565b60405180910390f35b610489610f87565b60405161049691906126be565b60405180910390f35b6104b960048036038101906104b49190612aef565b611019565b005b6104d560048036038101906104d09190612c64565b61102f565b005b6104f160048036038101906104ec9190612716565b611091565b6040516104fe91906126be565b60405180910390f35b610521600480360381019061051c9190612d88565b611136565b60405161052e919061281a565b60405180910390f35b61053f611246565b60405161054c919061281a565b60405180910390f35b61056f600480360381019061056a9190612de4565b61124c565b60405161057c919061260a565b60405180910390f35b61059f600480360381019061059a9190612888565b6112e0565b005b60007f780e9d63000000000000000000000000000000000000000000000000000000007bffffffffffffffffffffffffffffffffffffffffffffffffffffffff1916827bffffffffffffffffffffffffffffffffffffffffffffffffffffffff191614806106145750610613826113d8565b5b9050919050565b60606000805461062a90612e53565b80601f016020809104026020016040519081016040528092919081815260200182805461065690612e53565b80156106a35780601f10610678576101008083540402835291602001916106a3565b820191906000526020600020905b81548152906001019060200180831161068657829003601f168201915b5050505050905090565b60006106b8826114ba565b6106f7576040517f08c379a00000000000000000000000000000000000000000000000000000000081526004016106ee90612ef7565b60405180910390fd5b6004600083815260200190815260200160002060009054906101000a900473ffffffffffffffffffffffffffffffffffffffff169050919050565b600061073d82610d13565b90508073ffffffffffffffffffffffffffffffffffffffff168373ffffffffffffffffffffffffffffffffffffffff1614156107ae576040517f08c379a00000000000000000000000000000000000000000000000000000000081526004016107a590612f89565b60405180910390fd5b8073ffffffffffffffffffffffffffffffffffffffff166107cd611526565b73ffffffffffffffffffffffffffffffffffffffff1614806107fc57506107fb816107f6611526565b61124c565b5b61083b576040517f08c379a00000000000000000000000000000000000000000000000000000000081526004016108329061301b565b60405180910390fd5b610845838361152e565b505050565b610852610f5d565b73ffffffffffffffffffffffffffffffffffffffff163373ffffffffffffffffffffffffffffffffffffffff16146108bf576040517f08c379a00000000000000000000000000000000000000000000000000000000081526004016108b6906130ad565b60405180910390fd5b6001600d60006101000a81548160ff021916908315150217905550565b600d60009054906101000a900460ff1681565b6000600880549050905090565b61090d610907611526565b826115e7565b61094c576040517f08c379a00000000000000000000000000000000000000000000000000000000081526004016109439061313f565b60405180910390fd5b6109578383836116c5565b505050565b600061096783610dc5565b82106109a8576040517f08c379a000000000000000000000000000000000000000000000000000000000815260040161099f906131d1565b60405180910390fd5b600660008473ffffffffffffffffffffffffffffffffffffffff1673ffffffffffffffffffffffffffffffffffffffff168152602001908152602001600020600083815260200190815260200160002054905092915050565b60606000610a0e83610dc5565b905060008167ffffffffffffffff811115610a2c57610a2b612b39565b5b604051908082528060200260200182016040528015610a5a5781602001602082028036833780820191505090505b50905060008267ffffffffffffffff811115610a7957610a78612b39565b5b604051908082528060200260200182016040528015610aac57816020015b6060815260200190600190039081610a975790505b50905060005b83811015610b3757610ac4868261095c565b838281518110610ad757610ad66131f1565b5b602002602001018181525050610b06838281518110610af957610af86131f1565b5b6020026020010151611091565b828281518110610b1957610b186131f1565b5b60200260200101819052508080610b2f9061324f565b915050610ab2565b50809350505050919050565b610b5e8383836040518060200160405280600081525061102f565b505050565b610b6c81610d13565b73ffffffffffffffffffffffffffffffffffffffff163373ffffffffffffffffffffffffffffffffffffffff1614610bd9576040517f08c379a0000000000000000000000000000000000000000000000000000000008152600401610bd09061330a565b60405180910390fd5b610be281611921565b50565b60606000610bf283610dc5565b905060008167ffffffffffffffff811115610c1057610c0f612b39565b5b604051908082528060200260200182016040528015610c3e5781602001602082028036833780820191505090505b50905060005b82811015610c8857610c56858261095c565b828281518110610c6957610c686131f1565b5b6020026020010181815250508080610c809061324f565b915050610c44565b508092505050919050565b6060610c9d610f05565b905090565b6000610cac6108ef565b8210610ced576040517f08c379a0000000000000000000000000000000000000000000000000000000008152600401610ce49061339c565b60405180910390fd5b60088281548110610d0157610d006131f1565b5b90600052602060002001549050919050565b6000806002600084815260200190815260200160002060009054906101000a900473ffffffffffffffffffffffffffffffffffffffff169050600073ffffffffffffffffffffffffffffffffffffffff168173ffffffffffffffffffffffffffffffffffffffff161415610dbc576040517f08c379a0000000000000000000000000000000000000000000000000000000008152600401610db39061342e565b60405180910390fd5b80915050919050565b60008073ffffffffffffffffffffffffffffffffffffffff168273ffffffffffffffffffffffffffffffffffffffff161415610e36576040517f08c379a0000000000000000000000000000000000000000000000000000000008152600401610e2d906134c0565b60405180910390fd5b600360008373ffffffffffffffffffffffffffffffffffffffff1673ffffffffffffffffffffffffffffffffffffffff168152602001908152602001600020549050919050565b610e85611526565b73ffffffffffffffffffffffffffffffffffffffff16610ea3610f5d565b73ffffffffffffffffffffffffffffffffffffffff1614610ef9576040517f08c379a0000000000000000000000000000000000000000000000000000000008152600401610ef09061352c565b60405180910390fd5b610f036000611a32565b565b60606008805480602002602001604051908101604052809291908181526020018280548015610f5357602002820191906000526020600020905b815481526020019060010190808311610f3f575b5050505050905090565b6000600a60009054906101000a900473ffffffffffffffffffffffffffffffffffffffff16905090565b606060018054610f9690612e53565b80601f0160208091040260200160405190810160405280929190818152602001828054610fc290612e53565b801561100f5780601f10610fe45761010080835404028352916020019161100f565b820191906000526020600020905b815481529060010190602001808311610ff257829003601f168201915b5050505050905090565b61102b611024611526565b8383611af8565b5050565b61104061103a611526565b836115e7565b61107f576040517f08c379a00000000000000000000000000000000000000000000000000000000081526004016110769061313f565b60405180910390fd5b61108b84848484611c65565b50505050565b6060600e600083815260200190815260200160002080546110b190612e53565b80601f01602080910402602001604051908101604052809291908181526020018280546110dd90612e53565b801561112a5780601f106110ff5761010080835404028352916020019161112a565b820191906000526020600020905b81548152906001019060200180831161110d57829003601f168201915b50505050509050919050565b6000611140611526565b73ffffffffffffffffffffffffffffffffffffffff1661115e610f5d565b73ffffffffffffffffffffffffffffffffffffffff16146111b4576040517f08c379a00000000000000000000000000000000000000000000000000000000081526004016111ab9061352c565b60405180910390fd5b60006111be6108ef565b9050600c548110611204576040517f08c379a00000000000000000000000000000000000000000000000000000000081526004016111fb90613598565b60405180910390fd5b60008190506112138582611cc1565b83600e6000838152602001908152602001600020908051906020019061123a9291906124b3565b50809250505092915050565b600c5481565b6000600560008473ffffffffffffffffffffffffffffffffffffffff1673ffffffffffffffffffffffffffffffffffffffff16815260200190815260200160002060008373ffffffffffffffffffffffffffffffffffffffff1673ffffffffffffffffffffffffffffffffffffffff16815260200190815260200160002060009054906101000a900460ff16905092915050565b6112e8611526565b73ffffffffffffffffffffffffffffffffffffffff16611306610f5d565b73ffffffffffffffffffffffffffffffffffffffff161461135c576040517f08c379a00000000000000000000000000000000000000000000000000000000081526004016113539061352c565b60405180910390fd5b600073ffffffffffffffffffffffffffffffffffffffff168173ffffffffffffffffffffffffffffffffffffffff1614156113cc576040517f08c379a00000000000000000000000000000000000000000000000000000000081526004016113c39061362a565b60405180910390fd5b6113d581611a32565b50565b60007f80ac58cd000000000000000000000000000000000000000000000000000000007bffffffffffffffffffffffffffffffffffffffffffffffffffffffff1916827bffffffffffffffffffffffffffffffffffffffffffffffffffffffff191614806114a357507f5b5e139f000000000000000000000000000000000000000000000000000000007bffffffffffffffffffffffffffffffffffffffffffffffffffffffff1916827bffffffffffffffffffffffffffffffffffffffffffffffffffffffff1916145b806114b357506114b282611e8f565b5b9050919050565b60008073ffffffffffffffffffffffffffffffffffffffff166002600084815260200190815260200160002060009054906101000a900473ffffffffffffffffffffffffffffffffffffffff1673ffffffffffffffffffffffffffffffffffffffff1614159050919050565b600033905090565b816004600083815260200190815260200160002060006101000a81548173ffffffffffffffffffffffffffffffffffffffff021916908373ffffffffffffffffffffffffffffffffffffffff160217905550808273ffffffffffffffffffffffffffffffffffffffff166115a183610d13565b73ffffffffffffffffffffffffffffffffffffffff167f8c5be1e5ebec7d5bd14f71427d1e84f3dd0314c0f7b2291e5b200ac8c7c3b92560405160405180910390a45050565b60006115f2826114ba565b611631576040517f08c379a0000000000000000000000000000000000000000000000000000000008152600401611628906136bc565b60405180910390fd5b600061163c83610d13565b90508073ffffffffffffffffffffffffffffffffffffffff168473ffffffffffffffffffffffffffffffffffffffff1614806116ab57508373ffffffffffffffffffffffffffffffffffffffff16611693846106ad565b73ffffffffffffffffffffffffffffffffffffffff16145b806116bc57506116bb818561124c565b5b91505092915050565b8273ffffffffffffffffffffffffffffffffffffffff166116e582610d13565b73ffffffffffffffffffffffffffffffffffffffff161461173b576040517f08c379a00000000000000000000000000000000000000000000000000000000081526004016117329061374e565b60405180910390fd5b600073ffffffffffffffffffffffffffffffffffffffff168273ffffffffffffffffffffffffffffffffffffffff1614156117ab576040517f08c379a00000000000000000000000000000000000000000000000000000000081526004016117a2906137e0565b60405180910390fd5b6117b6838383611ef9565b6117c160008261152e565b6001600360008573ffffffffffffffffffffffffffffffffffffffff1673ffffffffffffffffffffffffffffffffffffffff16815260200190815260200160002060008282546118119190613800565b925050819055506001600360008473ffffffffffffffffffffffffffffffffffffffff1673ffffffffffffffffffffffffffffffffffffffff16815260200190815260200160002060008282546118689190613834565b92505081905550816002600083815260200190815260200160002060006101000a81548173ffffffffffffffffffffffffffffffffffffffff021916908373ffffffffffffffffffffffffffffffffffffffff160217905550808273ffffffffffffffffffffffffffffffffffffffff168473ffffffffffffffffffffffffffffffffffffffff167fddf252ad1be2c89b69c2b068fc378daa952ba7f163c4a11628f55a4df523b3ef60405160405180910390a4505050565b600061192c82610d13565b905061193a81600084611ef9565b61194560008361152e565b6001600360008373ffffffffffffffffffffffffffffffffffffffff1673ffffffffffffffffffffffffffffffffffffffff16815260200190815260200160002060008282546119959190613800565b925050819055506002600083815260200190815260200160002060006101000a81549073ffffffffffffffffffffffffffffffffffffffff021916905581600073ffffffffffffffffffffffffffffffffffffffff168273ffffffffffffffffffffffffffffffffffffffff167fddf252ad1be2c89b69c2b068fc378daa952ba7f163c4a11628f55a4df523b3ef60405160405180910390a45050565b6000600a60009054906101000a900473ffffffffffffffffffffffffffffffffffffffff16905081600a60006101000a81548173ffffffffffffffffffffffffffffffffffffffff021916908373ffffffffffffffffffffffffffffffffffffffff1602179055508173ffffffffffffffffffffffffffffffffffffffff168173ffffffffffffffffffffffffffffffffffffffff167f8be0079c531659141344cd1fd0a4f28419497f9722a3daafe3b4186f6b6457e060405160405180910390a35050565b8173ffffffffffffffffffffffffffffffffffffffff168373ffffffffffffffffffffffffffffffffffffffff161415611b67576040517f08c379a0000000000000000000000000000000000000000000000000000000008152600401611b5e906138d6565b60405180910390fd5b80600560008573ffffffffffffffffffffffffffffffffffffffff1673ffffffffffffffffffffffffffffffffffffffff16815260200190815260200160002060008473ffffffffffffffffffffffffffffffffffffffff1673ffffffffffffffffffffffffffffffffffffffff16815260200190815260200160002060006101000a81548160ff0219169083151502179055508173ffffffffffffffffffffffffffffffffffffffff168373ffffffffffffffffffffffffffffffffffffffff167f17307eab39ab6107e8899845ad3d59bd9653f200f220920489ca2b5937696c3183604051611c58919061260a565b60405180910390a3505050565b611c708484846116c5565b611c7c8484848461200d565b611cbb576040517f08c379a0000000000000000000000000000000000000000000000000000000008152600401611cb290613968565b60405180910390fd5b50505050565b600073ffffffffffffffffffffffffffffffffffffffff168273ffffffffffffffffffffffffffffffffffffffff161415611d31576040517f08c379a0000000000000000000000000000000000000000000000000000000008152600401611d28906139d4565b60405180910390fd5b611d3a816114ba565b15611d7a576040517f08c379a0000000000000000000000000000000000000000000000000000000008152600401611d7190613a40565b60405180910390fd5b611d8660008383611ef9565b6001600360008473ffffffffffffffffffffffffffffffffffffffff1673ffffffffffffffffffffffffffffffffffffffff1681526020019081526020016000206000828254611dd69190613834565b92505081905550816002600083815260200190815260200160002060006101000a81548173ffffffffffffffffffffffffffffffffffffffff021916908373ffffffffffffffffffffffffffffffffffffffff160217905550808273ffffffffffffffffffffffffffffffffffffffff16600073ffffffffffffffffffffffffffffffffffffffff167fddf252ad1be2c89b69c2b068fc378daa952ba7f163c4a11628f55a4df523b3ef60405160405180910390a45050565b60007f01ffc9a7000000000000000000000000000000000000000000000000000000007bffffffffffffffffffffffffffffffffffffffffffffffffffffffff1916827bffffffffffffffffffffffffffffffffffffffffffffffffffffffff1916149050919050565b611f04838383612195565b600073ffffffffffffffffffffffffffffffffffffffff168373ffffffffffffffffffffffffffffffffffffffff161415611f4757611f428161219a565b611f86565b8173ffffffffffffffffffffffffffffffffffffffff168373ffffffffffffffffffffffffffffffffffffffff1614611f8557611f8483826121e3565b5b5b600073ffffffffffffffffffffffffffffffffffffffff168273ffffffffffffffffffffffffffffffffffffffff161415611fc957611fc481612350565b612008565b8273ffffffffffffffffffffffffffffffffffffffff168273ffffffffffffffffffffffffffffffffffffffff1614612007576120068282612421565b5b5b505050565b600061202e8473ffffffffffffffffffffffffffffffffffffffff166124a0565b15612188578373ffffffffffffffffffffffffffffffffffffffff1663150b7a02612057611526565b8786866040518563ffffffff1660e01b81526004016120799493929190613ab5565b6020604051808303816000875af19250505080156120b557506040513d601f19601f820116820180604052508101906120b29190613b16565b60015b612138573d80600081146120e5576040519150601f19603f3d011682016040523d82523d6000602084013e6120ea565b606091505b50600081511415612130576040517f08c379a000000000000000000000000000000000000000000000000000000000815260040161212790613968565b60405180910390fd5b805181602001fd5b63150b7a0260e01b7bffffffffffffffffffffffffffffffffffffffffffffffffffffffff1916817bffffffffffffffffffffffffffffffffffffffffffffffffffffffff19161491505061218d565b600190505b949350505050565b505050565b6008805490506009600083815260200190815260200160002081905550600881908060018154018082558091505060019003906000526020600020016000909190919091505550565b600060016121f084610dc5565b6121fa9190613800565b90506000600760008481526020019081526020016000205490508181146122df576000600660008673ffffffffffffffffffffffffffffffffffffffff1673ffffffffffffffffffffffffffffffffffffffff168152602001908152602001600020600084815260200190815260200160002054905080600660008773ffffffffffffffffffffffffffffffffffffffff1673ffffffffffffffffffffffffffffffffffffffff168152602001908152602001600020600084815260200190815260200160002081905550816007600083815260200190815260200160002081905550505b6007600084815260200190815260200160002060009055600660008573ffffffffffffffffffffffffffffffffffffffff1673ffffffffffffffffffffffffffffffffffffffff16815260200190815260200160002060008381526020019081526020016000206000905550505050565b600060016008805490506123649190613800565b9050600060096000848152602001908152602001600020549050600060088381548110612394576123936131f1565b5b9060005260206000200154905080600883815481106123b6576123b56131f1565b5b90600052602060002001819055508160096000838152602001908152602001600020819055506009600085815260200190815260200160002060009055600880548061240557612404613b43565b5b6001900381819060005260206000200160009055905550505050565b600061242c83610dc5565b905081600660008573ffffffffffffffffffffffffffffffffffffffff1673ffffffffffffffffffffffffffffffffffffffff168152602001908152602001600020600083815260200190815260200160002081905550806007600084815260200190815260200160002081905550505050565b600080823b905060008111915050919050565b8280546124bf90612e53565b90600052602060002090601f0160209004810192826124e15760008555612528565b82601f106124fa57805160ff1916838001178555612528565b82800160010185558215612528579182015b8281111561252757825182559160200191906001019061250c565b5b5090506125359190612539565b5090565b5b8082111561255257600081600090555060010161253a565b5090565b6000604051905090565b600080fd5b600080fd5b60007fffffffff0000000000000000000000000000000000000000000000000000000082169050919050565b61259f8161256a565b81146125aa57600080fd5b50565b6000813590506125bc81612596565b92915050565b6000602082840312156125d8576125d7612560565b5b60006125e6848285016125ad565b91505092915050565b60008115159050919050565b612604816125ef565b82525050565b600060208201905061261f60008301846125fb565b92915050565b600081519050919050565b600082825260208201905092915050565b60005b8381101561265f578082015181840152602081019050612644565b8381111561266e576000848401525b50505050565b6000601f19601f8301169050919050565b600061269082612625565b61269a8185612630565b93506126aa818560208601612641565b6126b381612674565b840191505092915050565b600060208201905081810360008301526126d88184612685565b905092915050565b6000819050919050565b6126f3816126e0565b81146126fe57600080fd5b50565b600081359050612710816126ea565b92915050565b60006020828403121561272c5761272b612560565b5b600061273a84828501612701565b91505092915050565b600073ffffffffffffffffffffffffffffffffffffffff82169050919050565b600061276e82612743565b9050919050565b61277e81612763565b82525050565b60006020820190506127996000830184612775565b92915050565b6127a881612763565b81146127b357600080fd5b50565b6000813590506127c58161279f565b92915050565b600080604083850312156127e2576127e1612560565b5b60006127f0858286016127b6565b925050602061280185828601612701565b9150509250929050565b612814816126e0565b82525050565b600060208201905061282f600083018461280b565b92915050565b60008060006060848603121561284e5761284d612560565b5b600061285c868287016127b6565b935050602061286d868287016127b6565b925050604061287e86828701612701565b9150509250925092565b60006020828403121561289e5761289d612560565b5b60006128ac848285016127b6565b91505092915050565b600081519050919050565b600082825260208201905092915050565b6000819050602082019050919050565b600082825260208201905092915050565b60006128fd82612625565b61290781856128e1565b9350612917818560208601612641565b61292081612674565b840191505092915050565b600061293783836128f2565b905092915050565b6000602082019050919050565b6000612957826128b5565b61296181856128c0565b935083602082028501612973856128d1565b8060005b858110156129af5784840389528151612990858261292b565b945061299b8361293f565b925060208a01995050600181019050612977565b50829750879550505050505092915050565b600060208201905081810360008301526129db818461294c565b905092915050565b600081519050919050565b600082825260208201905092915050565b6000819050602082019050919050565b612a18816126e0565b82525050565b6000612a2a8383612a0f565b60208301905092915050565b6000602082019050919050565b6000612a4e826129e3565b612a5881856129ee565b9350612a63836129ff565b8060005b83811015612a94578151612a7b8882612a1e565b9750612a8683612a36565b925050600181019050612a67565b5085935050505092915050565b60006020820190508181036000830152612abb8184612a43565b905092915050565b612acc816125ef565b8114612ad757600080fd5b50565b600081359050612ae981612ac3565b92915050565b60008060408385031215612b0657612b05612560565b5b6000612b14858286016127b6565b9250506020612b2585828601612ada565b9150509250929050565b600080fd5b600080fd5b7f4e487b7100000000000000000000000000000000000000000000000000000000600052604160045260246000fd5b612b7182612674565b810181811067ffffffffffffffff82111715612b9057612b8f612b39565b5b80604052505050565b6000612ba3612556565b9050612baf8282612b68565b919050565b600067ffffffffffffffff821115612bcf57612bce612b39565b5b612bd882612674565b9050602081019050919050565b82818337600083830152505050565b6000612c07612c0284612bb4565b612b99565b905082815260208101848484011115612c2357612c22612b34565b5b612c2e848285612be5565b509392505050565b600082601f830112612c4b57612c4a612b2f565b5b8135612c5b848260208601612bf4565b91505092915050565b60008060008060808587031215612c7e57612c7d612560565b5b6000612c8c878288016127b6565b9450506020612c9d878288016127b6565b9350506040612cae87828801612701565b925050606085013567ffffffffffffffff811115612ccf57612cce612565565b5b612cdb87828801612c36565b91505092959194509250565b600067ffffffffffffffff821115612d0257612d01612b39565b5b612d0b82612674565b9050602081019050919050565b6000612d2b612d2684612ce7565b612b99565b905082815260208101848484011115612d4757612d46612b34565b5b612d52848285612be5565b509392505050565b600082601f830112612d6f57612d6e612b2f565b5b8135612d7f848260208601612d18565b91505092915050565b60008060408385031215612d9f57612d9e612560565b5b6000612dad858286016127b6565b925050602083013567ffffffffffffffff811115612dce57612dcd612565565b5b612dda85828601612d5a565b9150509250929050565b60008060408385031215612dfb57612dfa612560565b5b6000612e09858286016127b6565b9250506020612e1a858286016127b6565b9150509250929050565b7f4e487b7100000000000000000000000000000000000000000000000000000000600052602260045260246000fd5b60006002820490506001821680612e6b57607f821691505b60208210811415612e7f57612e7e612e24565b5b50919050565b7f4552433732313a20617070726f76656420717565727920666f72206e6f6e657860008201527f697374656e7420746f6b656e0000000000000000000000000000000000000000602082015250565b6000612ee1602c83612630565b9150612eec82612e85565b604082019050919050565b60006020820190508181036000830152612f1081612ed4565b9050919050565b7f4552433732313a20617070726f76616c20746f2063757272656e74206f776e6560008201527f7200000000000000000000000000000000000000000000000000000000000000602082015250565b6000612f73602183612630565b9150612f7e82612f17565b604082019050919050565b60006020820190508181036000830152612fa281612f66565b9050919050565b7f4552433732313a20617070726f76652063616c6c6572206973206e6f74206f7760008201527f6e6572206e6f7220617070726f76656420666f7220616c6c0000000000000000602082015250565b6000613005603883612630565b915061301082612fa9565b604082019050919050565b6000602082019050818103600083015261303481612ff8565b9050919050565b7f596f752063616e2774206c6f636b2e20596f7520617265206e6f74206f776e6560008201527f72206f662074686520636f6e7472616374000000000000000000000000000000602082015250565b6000613097603183612630565b91506130a28261303b565b604082019050919050565b600060208201905081810360008301526130c68161308a565b9050919050565b7f4552433732313a207472616e736665722063616c6c6572206973206e6f74206f60008201527f776e6572206e6f7220617070726f766564000000000000000000000000000000602082015250565b6000613129603183612630565b9150613134826130cd565b604082019050919050565b600060208201905081810360008301526131588161311c565b9050919050565b7f455243373231456e756d657261626c653a206f776e657220696e646578206f7560008201527f74206f6620626f756e6473000000000000000000000000000000000000000000602082015250565b60006131bb602b83612630565b91506131c68261315f565b604082019050919050565b600060208201905081810360008301526131ea816131ae565b9050919050565b7f4e487b7100000000000000000000000000000000000000000000000000000000600052603260045260246000fd5b7f4e487b7100000000000000000000000000000000000000000000000000000000600052601160045260246000fd5b600061325a826126e0565b91507fffffffffffffffffffffffffffffffffffffffffffffffffffffffffffffffff82141561328d5761328c613220565b5b600182019050919050565b7f4f776e65722073686f756c64206f6e6c792062652061626c6520746f2062757260008201527f6e00000000000000000000000000000000000000000000000000000000000000602082015250565b60006132f4602183612630565b91506132ff82613298565b604082019050919050565b60006020820190508181036000830152613323816132e7565b9050919050565b7f455243373231456e756d657261626c653a20676c6f62616c20696e646578206f60008201527f7574206f6620626f756e64730000000000000000000000000000000000000000602082015250565b6000613386602c83612630565b91506133918261332a565b604082019050919050565b600060208201905081810360008301526133b581613379565b9050919050565b7f4552433732313a206f776e657220717565727920666f72206e6f6e657869737460008201527f656e7420746f6b656e0000000000000000000000000000000000000000000000602082015250565b6000613418602983612630565b9150613423826133bc565b604082019050919050565b600060208201905081810360008301526134478161340b565b9050919050565b7f4552433732313a2062616c616e636520717565727920666f7220746865207a6560008201527f726f206164647265737300000000000000000000000000000000000000000000602082015250565b60006134aa602a83612630565b91506134b58261344e565b604082019050919050565b600060208201905081810360008301526134d98161349d565b9050919050565b7f4f776e61626c653a2063616c6c6572206973206e6f7420746865206f776e6572600082015250565b6000613516602083612630565b9150613521826134e0565b602082019050919050565b6000602082019050818103600083015261354581613509565b9050919050565b7f4d617820537570706c7920526561636865640000000000000000000000000000600082015250565b6000613582601283612630565b915061358d8261354c565b602082019050919050565b600060208201905081810360008301526135b181613575565b9050919050565b7f4f776e61626c653a206e6577206f776e657220697320746865207a65726f206160008201527f6464726573730000000000000000000000000000000000000000000000000000602082015250565b6000613614602683612630565b915061361f826135b8565b604082019050919050565b6000602082019050818103600083015261364381613607565b9050919050565b7f4552433732313a206f70657261746f7220717565727920666f72206e6f6e657860008201527f697374656e7420746f6b656e0000000000000000000000000000000000000000602082015250565b60006136a6602c83612630565b91506136b18261364a565b604082019050919050565b600060208201905081810360008301526136d581613699565b9050919050565b7f4552433732313a207472616e73666572206f6620746f6b656e2074686174206960008201527f73206e6f74206f776e0000000000000000000000000000000000000000000000602082015250565b6000613738602983612630565b9150613743826136dc565b604082019050919050565b600060208201905081810360008301526137678161372b565b9050919050565b7f4552433732313a207472616e7366657220746f20746865207a65726f2061646460008201527f7265737300000000000000000000000000000000000000000000000000000000602082015250565b60006137ca602483612630565b91506137d58261376e565b604082019050919050565b600060208201905081810360008301526137f9816137bd565b9050919050565b600061380b826126e0565b9150613816836126e0565b92508282101561382957613828613220565b5b828203905092915050565b600061383f826126e0565b915061384a836126e0565b9250827fffffffffffffffffffffffffffffffffffffffffffffffffffffffffffffffff0382111561387f5761387e613220565b5b828201905092915050565b7f4552433732313a20617070726f766520746f2063616c6c657200000000000000600082015250565b60006138c0601983612630565b91506138cb8261388a565b602082019050919050565b600060208201905081810360008301526138ef816138b3565b9050919050565b7f4552433732313a207472616e7366657220746f206e6f6e20455243373231526560008201527f63656976657220696d706c656d656e7465720000000000000000000000000000602082015250565b6000613952603283612630565b915061395d826138f6565b604082019050919050565b6000602082019050818103600083015261398181613945565b9050919050565b7f4552433732313a206d696e7420746f20746865207a65726f2061646472657373600082015250565b60006139be602083612630565b91506139c982613988565b602082019050919050565b600060208201905081810360008301526139ed816139b1565b9050919050565b7f4552433732313a20746f6b656e20616c7265616479206d696e74656400000000600082015250565b6000613a2a601c83612630565b9150613a35826139f4565b602082019050919050565b60006020820190508181036000830152613a5981613a1d565b9050919050565b600081519050919050565b600082825260208201905092915050565b6000613a8782613a60565b613a918185613a6b565b9350613aa1818560208601612641565b613aaa81612674565b840191505092915050565b6000608082019050613aca6000830187612775565b613ad76020830186612775565b613ae4604083018561280b565b8181036060830152613af68184613a7c565b905095945050505050565b600081519050613b1081612596565b92915050565b600060208284031215613b2c57613b2b612560565b5b6000613b3a84828501613b01565b91505092915050565b7f4e487b7100000000000000000000000000000000000000000000000000000000600052603160045260246000fdfea2646970667358221220d1a8bfc3dc687ec59905c205a77b69399e552944a7408be7b9690537aa794f1864736f6c634300080a0033",
    "immutableReferences": {},
    "source": "//SPDX-License-Identifier: MIT\n\npragma solidity ^0.8.2;\nimport \"@openzeppelin/contracts/access/Ownable.sol\";\nimport \"@openzeppelin/contracts/token/ERC721/ERC721.sol\";\nimport \"@openzeppelin/contracts/utils/Counters.sol\";\nimport \"@openzeppelin/contracts/token/ERC721/extensions/ERC721Enumerable.sol\";\n\n//AleSmartContract is the smart contract's name\ncontract Tiles is ERC721Enumerable, Ownable {\n    using Counters for Counters.Counter;\n    Counters.Counter private _tokenIds;\n    //setting max supply\n    uint256 public maxSupply = 10;\n    //added mintingLocked variable\n    bool public mintingLocked;\n\n    //Firt parameter is the collection's name\n    //Second parameter is the token's name?\n    constructor() ERC721(\"Tiles\", \"TILE\") {}\n\n    mapping(uint256 => string) tokenURIs;\n\n    function mint(address player, string memory mytokenURI)\n        public\n        onlyOwner\n        returns (uint256)\n    {\n        uint256 totalSupply = totalSupply();\n        //require(_tokenIds.current() < maxSupply, \"Max Supply Reached\");\n        require(totalSupply < maxSupply, \"Max Supply Reached\");\n        uint256 newItemId = totalSupply;\n        _mint(player, newItemId);\n        tokenURIs[newItemId] = mytokenURI;\n        return newItemId;\n    }\n\n    function tokenURI(uint256 tokenId)\n        public\n        view\n        virtual\n        override\n        returns (string memory)\n    {\n        return tokenURIs[tokenId];\n    }\n\n    function walletOfHolder(address _holder)\n        public\n        view\n        returns (uint256[] memory)\n    {\n        uint256 ownerTokenCount = balanceOf(_holder);\n        uint256[] memory tokenIds = new uint256[](ownerTokenCount);\n        for (uint256 i; i < ownerTokenCount; i++) {\n            tokenIds[i] = tokenOfOwnerByIndex(_holder, i);\n        }\n        return tokenIds;\n        //retorma um ARRAY\n    }\n\n    function asd() public view returns (uint256[] memory) {\n        return totalTokens();\n    }\n\n    function urisOfHolder(address _holder)\n        public\n        view\n        returns (string[] memory)\n    {\n        uint256 ownerTokenCount = balanceOf(_holder);\n        uint256[] memory tokenIds = new uint256[](ownerTokenCount);\n        string[] memory URIs = new string[](ownerTokenCount);\n        for (uint256 i; i < ownerTokenCount; i++) {\n            tokenIds[i] = tokenOfOwnerByIndex(_holder, i);\n            URIs[i] = tokenURI(tokenIds[i]);\n        }\n        return URIs;\n        //retorma um ARRAY\n    }\n\n    function lockMinting() public {\n        require(\n            msg.sender == owner(),\n            \"You can't lock. You are not owner of the contract\"\n        );\n        mintingLocked = true;\n    }\n\n    function burn(uint256 tokenId) public {\n        require(\n            msg.sender == ERC721.ownerOf(tokenId),\n            \"Owner should only be able to burn\"\n        );\n\n        _burn(tokenId);\n    }\n}\n",
    "sourcePath": "/home/alejandro/minter-stadium/contracts/Tiles.sol",
    "compiler": {
        "name": "solc",
        "version": "0.8.10+commit.fc410830.Emscripten.clang"
    },
    "schemaVersion": "3.4.3",
    "updatedAt": "2021-12-16T12:42:53.612Z",
    "networkType": "ethereum",
    "devdoc": {
        "kind": "dev",
        "methods": {
            "approve(address,uint256)": {
                "details": "See {IERC721-approve}."
            },
            "balanceOf(address)": {
                "details": "See {IERC721-balanceOf}."
            },
            "getApproved(uint256)": {
                "details": "See {IERC721-getApproved}."
            },
            "isApprovedForAll(address,address)": {
                "details": "See {IERC721-isApprovedForAll}."
            },
            "name()": {
                "details": "See {IERC721Metadata-name}."
            },
            "owner()": {
                "details": "Returns the address of the current owner."
            },
            "ownerOf(uint256)": {
                "details": "See {IERC721-ownerOf}."
            },
            "renounceOwnership()": {
                "details": "Leaves the contract without owner. It will not be possible to call `onlyOwner` functions anymore. Can only be called by the current owner. NOTE: Renouncing ownership will leave the contract without an owner, thereby removing any functionality that is only available to the owner."
            },
            "safeTransferFrom(address,address,uint256)": {
                "details": "See {IERC721-safeTransferFrom}."
            },
            "safeTransferFrom(address,address,uint256,bytes)": {
                "details": "See {IERC721-safeTransferFrom}."
            },
            "setApprovalForAll(address,bool)": {
                "details": "See {IERC721-setApprovalForAll}."
            },
            "supportsInterface(bytes4)": {
                "details": "See {IERC165-supportsInterface}."
            },
            "symbol()": {
                "details": "See {IERC721Metadata-symbol}."
            },
            "tokenByIndex(uint256)": {
                "details": "See {IERC721Enumerable-tokenByIndex}."
            },
            "tokenOfOwnerByIndex(address,uint256)": {
                "details": "See {IERC721Enumerable-tokenOfOwnerByIndex}."
            },
            "tokenURI(uint256)": {
                "details": "See {IERC721Metadata-tokenURI}."
            },
            "totalSupply()": {
                "details": "See {IERC721Enumerable-totalSupply}."
            },
            "transferFrom(address,address,uint256)": {
                "details": "See {IERC721-transferFrom}."
            },
            "transferOwnership(address)": {
                "details": "Transfers ownership of the contract to a new account (`newOwner`). Can only be called by the current owner."
            }
        },
        "version": 1
    },
    "userdoc": {
        "kind": "user",
        "methods": {},
        "version": 1
    }
}