{
    "_format": "hh-sol-artifact-1",
    "contractName": "Tiles",
    "sourceName": "contracts/Tiles.sol",
    "abi": [
        {
            "inputs": [],
            "stateMutability": "nonpayable",
            "type": "constructor"
        },
        {
            "anonymous": false,
            "inputs": [
                {
                    "indexed": true,
                    "internalType": "address",
                    "name": "owner",
                    "type": "address"
                },
                {
                    "indexed": true,
                    "internalType": "address",
                    "name": "approved",
                    "type": "address"
                },
                {
                    "indexed": true,
                    "internalType": "uint256",
                    "name": "tokenId",
                    "type": "uint256"
                }
            ],
            "name": "Approval",
            "type": "event"
        },
        {
            "anonymous": false,
            "inputs": [
                {
                    "indexed": true,
                    "internalType": "address",
                    "name": "owner",
                    "type": "address"
                },
                {
                    "indexed": true,
                    "internalType": "address",
                    "name": "operator",
                    "type": "address"
                },
                {
                    "indexed": false,
                    "internalType": "bool",
                    "name": "approved",
                    "type": "bool"
                }
            ],
            "name": "ApprovalForAll",
            "type": "event"
        },
        {
            "anonymous": false,
            "inputs": [
                {
                    "indexed": true,
                    "internalType": "address",
                    "name": "previousOwner",
                    "type": "address"
                },
                {
                    "indexed": true,
                    "internalType": "address",
                    "name": "newOwner",
                    "type": "address"
                }
            ],
            "name": "OwnershipTransferred",
            "type": "event"
        },
        {
            "anonymous": false,
            "inputs": [
                {
                    "indexed": true,
                    "internalType": "address",
                    "name": "from",
                    "type": "address"
                },
                {
                    "indexed": true,
                    "internalType": "address",
                    "name": "to",
                    "type": "address"
                },
                {
                    "indexed": true,
                    "internalType": "uint256",
                    "name": "tokenId",
                    "type": "uint256"
                }
            ],
            "name": "Transfer",
            "type": "event"
        },
        {
            "inputs": [
                {
                    "internalType": "address",
                    "name": "to",
                    "type": "address"
                },
                {
                    "internalType": "uint256",
                    "name": "tokenId",
                    "type": "uint256"
                }
            ],
            "name": "approve",
            "outputs": [],
            "stateMutability": "nonpayable",
            "type": "function"
        },
        {
            "inputs": [
                {
                    "internalType": "address",
                    "name": "owner",
                    "type": "address"
                }
            ],
            "name": "balanceOf",
            "outputs": [
                {
                    "internalType": "uint256",
                    "name": "",
                    "type": "uint256"
                }
            ],
            "stateMutability": "view",
            "type": "function"
        },
        {
            "inputs": [
                {
                    "internalType": "uint256",
                    "name": "tokenId",
                    "type": "uint256"
                }
            ],
            "name": "burn",
            "outputs": [],
            "stateMutability": "nonpayable",
            "type": "function"
        },
        {
            "inputs": [
                {
                    "internalType": "uint256",
                    "name": "tokenId",
                    "type": "uint256"
                }
            ],
            "name": "getApproved",
            "outputs": [
                {
                    "internalType": "address",
                    "name": "",
                    "type": "address"
                }
            ],
            "stateMutability": "view",
            "type": "function"
        },
        {
            "inputs": [
                {
                    "internalType": "address",
                    "name": "owner",
                    "type": "address"
                },
                {
                    "internalType": "address",
                    "name": "operator",
                    "type": "address"
                }
            ],
            "name": "isApprovedForAll",
            "outputs": [
                {
                    "internalType": "bool",
                    "name": "",
                    "type": "bool"
                }
            ],
            "stateMutability": "view",
            "type": "function"
        },
        {
            "inputs": [],
            "name": "lockMinting",
            "outputs": [],
            "stateMutability": "nonpayable",
            "type": "function"
        },
        {
            "inputs": [],
            "name": "maxSupply",
            "outputs": [
                {
                    "internalType": "uint256",
                    "name": "",
                    "type": "uint256"
                }
            ],
            "stateMutability": "view",
            "type": "function"
        },
        {
            "inputs": [
                {
                    "internalType": "address",
                    "name": "player",
                    "type": "address"
                },
                {
                    "internalType": "string",
                    "name": "mytokenURI",
                    "type": "string"
                }
            ],
            "name": "mint",
            "outputs": [
                {
                    "internalType": "uint256",
                    "name": "",
                    "type": "uint256"
                }
            ],
            "stateMutability": "nonpayable",
            "type": "function"
        },
        {
            "inputs": [],
            "name": "mintingLocked",
            "outputs": [
                {
                    "internalType": "bool",
                    "name": "",
                    "type": "bool"
                }
            ],
            "stateMutability": "view",
            "type": "function"
        },
        {
            "inputs": [],
            "name": "name",
            "outputs": [
                {
                    "internalType": "string",
                    "name": "",
                    "type": "string"
                }
            ],
            "stateMutability": "view",
            "type": "function"
        },
        {
            "inputs": [],
            "name": "owner",
            "outputs": [
                {
                    "internalType": "address",
                    "name": "",
                    "type": "address"
                }
            ],
            "stateMutability": "view",
            "type": "function"
        },
        {
            "inputs": [
                {
                    "internalType": "uint256",
                    "name": "tokenId",
                    "type": "uint256"
                }
            ],
            "name": "ownerOf",
            "outputs": [
                {
                    "internalType": "address",
                    "name": "",
                    "type": "address"
                }
            ],
            "stateMutability": "view",
            "type": "function"
        },
        {
            "inputs": [],
            "name": "renounceOwnership",
            "outputs": [],
            "stateMutability": "nonpayable",
            "type": "function"
        },
        {
            "inputs": [
                {
                    "internalType": "address",
                    "name": "from",
                    "type": "address"
                },
                {
                    "internalType": "address",
                    "name": "to",
                    "type": "address"
                },
                {
                    "internalType": "uint256",
                    "name": "tokenId",
                    "type": "uint256"
                }
            ],
            "name": "safeTransferFrom",
            "outputs": [],
            "stateMutability": "nonpayable",
            "type": "function"
        },
        {
            "inputs": [
                {
                    "internalType": "address",
                    "name": "from",
                    "type": "address"
                },
                {
                    "internalType": "address",
                    "name": "to",
                    "type": "address"
                },
                {
                    "internalType": "uint256",
                    "name": "tokenId",
                    "type": "uint256"
                },
                {
                    "internalType": "bytes",
                    "name": "_data",
                    "type": "bytes"
                }
            ],
            "name": "safeTransferFrom",
            "outputs": [],
            "stateMutability": "nonpayable",
            "type": "function"
        },
        {
            "inputs": [
                {
                    "internalType": "address",
                    "name": "operator",
                    "type": "address"
                },
                {
                    "internalType": "bool",
                    "name": "approved",
                    "type": "bool"
                }
            ],
            "name": "setApprovalForAll",
            "outputs": [],
            "stateMutability": "nonpayable",
            "type": "function"
        },
        {
            "inputs": [
                {
                    "internalType": "bytes4",
                    "name": "interfaceId",
                    "type": "bytes4"
                }
            ],
            "name": "supportsInterface",
            "outputs": [
                {
                    "internalType": "bool",
                    "name": "",
                    "type": "bool"
                }
            ],
            "stateMutability": "view",
            "type": "function"
        },
        {
            "inputs": [],
            "name": "symbol",
            "outputs": [
                {
                    "internalType": "string",
                    "name": "",
                    "type": "string"
                }
            ],
            "stateMutability": "view",
            "type": "function"
        },
        {
            "inputs": [
                {
                    "internalType": "uint256",
                    "name": "index",
                    "type": "uint256"
                }
            ],
            "name": "tokenByIndex",
            "outputs": [
                {
                    "internalType": "uint256",
                    "name": "",
                    "type": "uint256"
                }
            ],
            "stateMutability": "view",
            "type": "function"
        },
        {
            "inputs": [
                {
                    "internalType": "address",
                    "name": "owner",
                    "type": "address"
                },
                {
                    "internalType": "uint256",
                    "name": "index",
                    "type": "uint256"
                }
            ],
            "name": "tokenOfOwnerByIndex",
            "outputs": [
                {
                    "internalType": "uint256",
                    "name": "",
                    "type": "uint256"
                }
            ],
            "stateMutability": "view",
            "type": "function"
        },
        {
            "inputs": [
                {
                    "internalType": "uint256",
                    "name": "tokenId",
                    "type": "uint256"
                }
            ],
            "name": "tokenURI",
            "outputs": [
                {
                    "internalType": "string",
                    "name": "",
                    "type": "string"
                }
            ],
            "stateMutability": "view",
            "type": "function"
        },
        {
            "inputs": [],
            "name": "totalSupply",
            "outputs": [
                {
                    "internalType": "uint256",
                    "name": "",
                    "type": "uint256"
                }
            ],
            "stateMutability": "view",
            "type": "function"
        },
        {
            "inputs": [
                {
                    "internalType": "address",
                    "name": "from",
                    "type": "address"
                },
                {
                    "internalType": "address",
                    "name": "to",
                    "type": "address"
                },
                {
                    "internalType": "uint256",
                    "name": "tokenId",
                    "type": "uint256"
                }
            ],
            "name": "transferFrom",
            "outputs": [],
            "stateMutability": "nonpayable",
            "type": "function"
        },
        {
            "inputs": [
                {
                    "internalType": "address",
                    "name": "newOwner",
                    "type": "address"
                }
            ],
            "name": "transferOwnership",
            "outputs": [],
            "stateMutability": "nonpayable",
            "type": "function"
        },
        {
            "inputs": [
                {
                    "internalType": "address",
                    "name": "_holder",
                    "type": "address"
                }
            ],
            "name": "walletOfHolder",
            "outputs": [
                {
                    "internalType": "uint256[]",
                    "name": "",
                    "type": "uint256[]"
                }
            ],
            "stateMutability": "view",
            "type": "function"
        }
    ],
    "bytecode": "0x6080604052600a600c553480156200001657600080fd5b506040518060400160405280600581526020017f54696c65730000000000000000000000000000000000000000000000000000008152506040518060400160405280600481526020017f54494c450000000000000000000000000000000000000000000000000000000081525081600090805190602001906200009b929190620001ab565b508060019080519060200190620000b4929190620001ab565b505050620000d7620000cb620000dd60201b60201c565b620000e560201b60201c565b620002c0565b600033905090565b6000600a60009054906101000a900473ffffffffffffffffffffffffffffffffffffffff16905081600a60006101000a81548173ffffffffffffffffffffffffffffffffffffffff021916908373ffffffffffffffffffffffffffffffffffffffff1602179055508173ffffffffffffffffffffffffffffffffffffffff168173ffffffffffffffffffffffffffffffffffffffff167f8be0079c531659141344cd1fd0a4f28419497f9722a3daafe3b4186f6b6457e060405160405180910390a35050565b828054620001b9906200025b565b90600052602060002090601f016020900481019282620001dd576000855562000229565b82601f10620001f857805160ff191683800117855562000229565b8280016001018555821562000229579182015b82811115620002285782518255916020019190600101906200020b565b5b5090506200023891906200023c565b5090565b5b80821115620002575760008160009055506001016200023d565b5090565b600060028204905060018216806200027457607f821691505b602082108114156200028b576200028a62000291565b5b50919050565b7f4e487b7100000000000000000000000000000000000000000000000000000000600052602260045260246000fd5b6137d780620002d06000396000f3fe608060405234801561001057600080fd5b50600436106101735760003560e01c80634f6ccce7116100de578063a22cb46511610097578063d0def52111610071578063d0def5211461044a578063d5abeb011461047a578063e985e9c514610498578063f2fde38b146104c857610173565b8063a22cb465146103e2578063b88d4fde146103fe578063c87b56dd1461041a57610173565b80634f6ccce71461030c5780636352211e1461033c57806370a082311461036c578063715018a61461039c5780638da5cb5b146103a657806395d89b41146103c457610173565b806318160ddd1161013057806318160ddd1461023a57806323b872dd146102585780632f745c591461027457806342842e0e146102a457806342966c68146102c057806346a190ad146102dc57610173565b806301ffc9a71461017857806306fdde03146101a8578063081812fc146101c6578063095ea7b3146101f65780630d7982ad146102125780630fc50ebb1461021c575b600080fd5b610192600480360381019061018d9190612699565b6104e4565b60405161019f9190612b7d565b60405180910390f35b6101b061055e565b6040516101bd9190612b98565b60405180910390f35b6101e060048036038101906101db91906126eb565b6105f0565b6040516101ed9190612af4565b60405180910390f35b610210600480360381019061020b919061265d565b610675565b005b61021a61078d565b005b61022461081f565b6040516102319190612b7d565b60405180910390f35b610242610832565b60405161024f9190612e3a565b60405180910390f35b610272600480360381019061026d9190612503565b61083f565b005b61028e6004803603810190610289919061265d565b61089f565b60405161029b9190612e3a565b60405180910390f35b6102be60048036038101906102b99190612503565b610944565b005b6102da60048036038101906102d591906126eb565b610964565b005b6102f660048036038101906102f1919061249e565b6109e6565b6040516103039190612b5b565b60405180910390f35b610326600480360381019061032191906126eb565b610ae0565b6040516103339190612e3a565b60405180910390f35b610356600480360381019061035191906126eb565b610b77565b6040516103639190612af4565b60405180910390f35b6103866004803603810190610381919061249e565b610c29565b6040516103939190612e3a565b60405180910390f35b6103a4610ce1565b005b6103ae610d69565b6040516103bb9190612af4565b60405180910390f35b6103cc610d93565b6040516103d99190612b98565b60405180910390f35b6103fc60048036038101906103f791906125cd565b610e25565b005b61041860048036038101906104139190612552565b610fa6565b005b610434600480360381019061042f91906126eb565b611008565b6040516104419190612b98565b60405180910390f35b610464600480360381019061045f9190612609565b6110ad565b6040516104719190612e3a565b60405180910390f35b610482611141565b60405161048f9190612e3a565b60405180910390f35b6104b260048036038101906104ad91906124c7565b611147565b6040516104bf9190612b7d565b60405180910390f35b6104e260048036038101906104dd919061249e565b6111db565b005b60007f780e9d63000000000000000000000000000000000000000000000000000000007bffffffffffffffffffffffffffffffffffffffffffffffffffffffff1916827bffffffffffffffffffffffffffffffffffffffffffffffffffffffff191614806105575750610556826112d3565b5b9050919050565b60606000805461056d9061308d565b80601f01602080910402602001604051908101604052809291908181526020018280546105999061308d565b80156105e65780601f106105bb576101008083540402835291602001916105e6565b820191906000526020600020905b8154815290600101906020018083116105c957829003601f168201915b5050505050905090565b60006105fb826113b5565b61063a576040517f08c379a000000000000000000000000000000000000000000000000000000000815260040161063190612d1a565b60405180910390fd5b6004600083815260200190815260200160002060009054906101000a900473ffffffffffffffffffffffffffffffffffffffff169050919050565b600061068082610b77565b90508073ffffffffffffffffffffffffffffffffffffffff168373ffffffffffffffffffffffffffffffffffffffff1614156106f1576040517f08c379a00000000000000000000000000000000000000000000000000000000081526004016106e890612d9a565b60405180910390fd5b8073ffffffffffffffffffffffffffffffffffffffff16610710611421565b73ffffffffffffffffffffffffffffffffffffffff16148061073f575061073e81610739611421565b611147565b5b61077e576040517f08c379a000000000000000000000000000000000000000000000000000000000815260040161077590612c9a565b60405180910390fd5b6107888383611429565b505050565b610795610d69565b73ffffffffffffffffffffffffffffffffffffffff163373ffffffffffffffffffffffffffffffffffffffff1614610802576040517f08c379a00000000000000000000000000000000000000000000000000000000081526004016107f990612e1a565b60405180910390fd5b6001600d60006101000a81548160ff021916908315150217905550565b600d60009054906101000a900460ff1681565b6000600880549050905090565b61085061084a611421565b826114e2565b61088f576040517f08c379a000000000000000000000000000000000000000000000000000000000815260040161088690612dba565b60405180910390fd5b61089a8383836115c0565b505050565b60006108aa83610c29565b82106108eb576040517f08c379a00000000000000000000000000000000000000000000000000000000081526004016108e290612bba565b60405180910390fd5b600660008473ffffffffffffffffffffffffffffffffffffffff1673ffffffffffffffffffffffffffffffffffffffff168152602001908152602001600020600083815260200190815260200160002054905092915050565b61095f83838360405180602001604052806000815250610fa6565b505050565b61096d81610b77565b73ffffffffffffffffffffffffffffffffffffffff163373ffffffffffffffffffffffffffffffffffffffff16146109da576040517f08c379a00000000000000000000000000000000000000000000000000000000081526004016109d190612d3a565b60405180910390fd5b6109e38161181c565b50565b606060006109f383610c29565b905060008167ffffffffffffffff811115610a37577f4e487b7100000000000000000000000000000000000000000000000000000000600052604160045260246000fd5b604051908082528060200260200182016040528015610a655781602001602082028036833780820191505090505b50905060005b82811015610ad557610a7d858261089f565b828281518110610ab6577f4e487b7100000000000000000000000000000000000000000000000000000000600052603260045260246000fd5b6020026020010181815250508080610acd906130f0565b915050610a6b565b508092505050919050565b6000610aea610832565b8210610b2b576040517f08c379a0000000000000000000000000000000000000000000000000000000008152600401610b2290612dda565b60405180910390fd5b60088281548110610b65577f4e487b7100000000000000000000000000000000000000000000000000000000600052603260045260246000fd5b90600052602060002001549050919050565b6000806002600084815260200190815260200160002060009054906101000a900473ffffffffffffffffffffffffffffffffffffffff169050600073ffffffffffffffffffffffffffffffffffffffff168173ffffffffffffffffffffffffffffffffffffffff161415610c20576040517f08c379a0000000000000000000000000000000000000000000000000000000008152600401610c1790612cda565b60405180910390fd5b80915050919050565b60008073ffffffffffffffffffffffffffffffffffffffff168273ffffffffffffffffffffffffffffffffffffffff161415610c9a576040517f08c379a0000000000000000000000000000000000000000000000000000000008152600401610c9190612cba565b60405180910390fd5b600360008373ffffffffffffffffffffffffffffffffffffffff1673ffffffffffffffffffffffffffffffffffffffff168152602001908152602001600020549050919050565b610ce9611421565b73ffffffffffffffffffffffffffffffffffffffff16610d07610d69565b73ffffffffffffffffffffffffffffffffffffffff1614610d5d576040517f08c379a0000000000000000000000000000000000000000000000000000000008152600401610d5490612d5a565b60405180910390fd5b610d67600061192d565b565b6000600a60009054906101000a900473ffffffffffffffffffffffffffffffffffffffff16905090565b606060018054610da29061308d565b80601f0160208091040260200160405190810160405280929190818152602001828054610dce9061308d565b8015610e1b5780601f10610df057610100808354040283529160200191610e1b565b820191906000526020600020905b815481529060010190602001808311610dfe57829003601f168201915b5050505050905090565b610e2d611421565b73ffffffffffffffffffffffffffffffffffffffff168273ffffffffffffffffffffffffffffffffffffffff161415610e9b576040517f08c379a0000000000000000000000000000000000000000000000000000000008152600401610e9290612c5a565b60405180910390fd5b8060056000610ea8611421565b73ffffffffffffffffffffffffffffffffffffffff1673ffffffffffffffffffffffffffffffffffffffff16815260200190815260200160002060008473ffffffffffffffffffffffffffffffffffffffff1673ffffffffffffffffffffffffffffffffffffffff16815260200190815260200160002060006101000a81548160ff0219169083151502179055508173ffffffffffffffffffffffffffffffffffffffff16610f55611421565b73ffffffffffffffffffffffffffffffffffffffff167f17307eab39ab6107e8899845ad3d59bd9653f200f220920489ca2b5937696c3183604051610f9a9190612b7d565b60405180910390a35050565b610fb7610fb1611421565b836114e2565b610ff6576040517f08c379a0000000000000000000000000000000000000000000000000000000008152600401610fed90612dba565b60405180910390fd5b611002848484846119f3565b50505050565b6060600e600083815260200190815260200160002080546110289061308d565b80601f01602080910402602001604051908101604052809291908181526020018280546110549061308d565b80156110a15780601f10611076576101008083540402835291602001916110a1565b820191906000526020600020905b81548152906001019060200180831161108457829003601f168201915b50505050509050919050565b6000806110b8610832565b9050600c548111156110ff576040517f08c379a00000000000000000000000000000000000000000000000000000000081526004016110f690612dfa565b60405180910390fd5b600081905061110e8582611a4f565b83600e600083815260200190815260200160002090805190602001906111359291906122c2565b50809250505092915050565b600c5481565b6000600560008473ffffffffffffffffffffffffffffffffffffffff1673ffffffffffffffffffffffffffffffffffffffff16815260200190815260200160002060008373ffffffffffffffffffffffffffffffffffffffff1673ffffffffffffffffffffffffffffffffffffffff16815260200190815260200160002060009054906101000a900460ff16905092915050565b6111e3611421565b73ffffffffffffffffffffffffffffffffffffffff16611201610d69565b73ffffffffffffffffffffffffffffffffffffffff1614611257576040517f08c379a000000000000000000000000000000000000000000000000000000000815260040161124e90612d5a565b60405180910390fd5b600073ffffffffffffffffffffffffffffffffffffffff168173ffffffffffffffffffffffffffffffffffffffff1614156112c7576040517f08c379a00000000000000000000000000000000000000000000000000000000081526004016112be90612bfa565b60405180910390fd5b6112d08161192d565b50565b60007f80ac58cd000000000000000000000000000000000000000000000000000000007bffffffffffffffffffffffffffffffffffffffffffffffffffffffff1916827bffffffffffffffffffffffffffffffffffffffffffffffffffffffff1916148061139e57507f5b5e139f000000000000000000000000000000000000000000000000000000007bffffffffffffffffffffffffffffffffffffffffffffffffffffffff1916827bffffffffffffffffffffffffffffffffffffffffffffffffffffffff1916145b806113ae57506113ad82611c1d565b5b9050919050565b60008073ffffffffffffffffffffffffffffffffffffffff166002600084815260200190815260200160002060009054906101000a900473ffffffffffffffffffffffffffffffffffffffff1673ffffffffffffffffffffffffffffffffffffffff1614159050919050565b600033905090565b816004600083815260200190815260200160002060006101000a81548173ffffffffffffffffffffffffffffffffffffffff021916908373ffffffffffffffffffffffffffffffffffffffff160217905550808273ffffffffffffffffffffffffffffffffffffffff1661149c83610b77565b73ffffffffffffffffffffffffffffffffffffffff167f8c5be1e5ebec7d5bd14f71427d1e84f3dd0314c0f7b2291e5b200ac8c7c3b92560405160405180910390a45050565b60006114ed826113b5565b61152c576040517f08c379a000000000000000000000000000000000000000000000000000000000815260040161152390612c7a565b60405180910390fd5b600061153783610b77565b90508073ffffffffffffffffffffffffffffffffffffffff168473ffffffffffffffffffffffffffffffffffffffff1614806115a657508373ffffffffffffffffffffffffffffffffffffffff1661158e846105f0565b73ffffffffffffffffffffffffffffffffffffffff16145b806115b757506115b68185611147565b5b91505092915050565b8273ffffffffffffffffffffffffffffffffffffffff166115e082610b77565b73ffffffffffffffffffffffffffffffffffffffff1614611636576040517f08c379a000000000000000000000000000000000000000000000000000000000815260040161162d90612d7a565b60405180910390fd5b600073ffffffffffffffffffffffffffffffffffffffff168273ffffffffffffffffffffffffffffffffffffffff1614156116a6576040517f08c379a000000000000000000000000000000000000000000000000000000000815260040161169d90612c3a565b60405180910390fd5b6116b1838383611c87565b6116bc600082611429565b6001600360008573ffffffffffffffffffffffffffffffffffffffff1673ffffffffffffffffffffffffffffffffffffffff168152602001908152602001600020600082825461170c9190612fa3565b925050819055506001600360008473ffffffffffffffffffffffffffffffffffffffff1673ffffffffffffffffffffffffffffffffffffffff16815260200190815260200160002060008282546117639190612f4d565b92505081905550816002600083815260200190815260200160002060006101000a81548173ffffffffffffffffffffffffffffffffffffffff021916908373ffffffffffffffffffffffffffffffffffffffff160217905550808273ffffffffffffffffffffffffffffffffffffffff168473ffffffffffffffffffffffffffffffffffffffff167fddf252ad1be2c89b69c2b068fc378daa952ba7f163c4a11628f55a4df523b3ef60405160405180910390a4505050565b600061182782610b77565b905061183581600084611c87565b611840600083611429565b6001600360008373ffffffffffffffffffffffffffffffffffffffff1673ffffffffffffffffffffffffffffffffffffffff16815260200190815260200160002060008282546118909190612fa3565b925050819055506002600083815260200190815260200160002060006101000a81549073ffffffffffffffffffffffffffffffffffffffff021916905581600073ffffffffffffffffffffffffffffffffffffffff168273ffffffffffffffffffffffffffffffffffffffff167fddf252ad1be2c89b69c2b068fc378daa952ba7f163c4a11628f55a4df523b3ef60405160405180910390a45050565b6000600a60009054906101000a900473ffffffffffffffffffffffffffffffffffffffff16905081600a60006101000a81548173ffffffffffffffffffffffffffffffffffffffff021916908373ffffffffffffffffffffffffffffffffffffffff1602179055508173ffffffffffffffffffffffffffffffffffffffff168173ffffffffffffffffffffffffffffffffffffffff167f8be0079c531659141344cd1fd0a4f28419497f9722a3daafe3b4186f6b6457e060405160405180910390a35050565b6119fe8484846115c0565b611a0a84848484611d9b565b611a49576040517f08c379a0000000000000000000000000000000000000000000000000000000008152600401611a4090612bda565b60405180910390fd5b50505050565b600073ffffffffffffffffffffffffffffffffffffffff168273ffffffffffffffffffffffffffffffffffffffff161415611abf576040517f08c379a0000000000000000000000000000000000000000000000000000000008152600401611ab690612cfa565b60405180910390fd5b611ac8816113b5565b15611b08576040517f08c379a0000000000000000000000000000000000000000000000000000000008152600401611aff90612c1a565b60405180910390fd5b611b1460008383611c87565b6001600360008473ffffffffffffffffffffffffffffffffffffffff1673ffffffffffffffffffffffffffffffffffffffff1681526020019081526020016000206000828254611b649190612f4d565b92505081905550816002600083815260200190815260200160002060006101000a81548173ffffffffffffffffffffffffffffffffffffffff021916908373ffffffffffffffffffffffffffffffffffffffff160217905550808273ffffffffffffffffffffffffffffffffffffffff16600073ffffffffffffffffffffffffffffffffffffffff167fddf252ad1be2c89b69c2b068fc378daa952ba7f163c4a11628f55a4df523b3ef60405160405180910390a45050565b60007f01ffc9a7000000000000000000000000000000000000000000000000000000007bffffffffffffffffffffffffffffffffffffffffffffffffffffffff1916827bffffffffffffffffffffffffffffffffffffffffffffffffffffffff1916149050919050565b611c92838383611f32565b600073ffffffffffffffffffffffffffffffffffffffff168373ffffffffffffffffffffffffffffffffffffffff161415611cd557611cd081611f37565b611d14565b8173ffffffffffffffffffffffffffffffffffffffff168373ffffffffffffffffffffffffffffffffffffffff1614611d1357611d128382611f80565b5b5b600073ffffffffffffffffffffffffffffffffffffffff168273ffffffffffffffffffffffffffffffffffffffff161415611d5757611d52816120ed565b611d96565b8273ffffffffffffffffffffffffffffffffffffffff168273ffffffffffffffffffffffffffffffffffffffff1614611d9557611d948282612230565b5b5b505050565b6000611dbc8473ffffffffffffffffffffffffffffffffffffffff166122af565b15611f25578373ffffffffffffffffffffffffffffffffffffffff1663150b7a02611de5611421565b8786866040518563ffffffff1660e01b8152600401611e079493929190612b0f565b602060405180830381600087803b158015611e2157600080fd5b505af1925050508015611e5257506040513d601f19601f82011682018060405250810190611e4f91906126c2565b60015b611ed5573d8060008114611e82576040519150601f19603f3d011682016040523d82523d6000602084013e611e87565b606091505b50600081511415611ecd576040517f08c379a0000000000000000000000000000000000000000000000000000000008152600401611ec490612bda565b60405180910390fd5b805181602001fd5b63150b7a0260e01b7bffffffffffffffffffffffffffffffffffffffffffffffffffffffff1916817bffffffffffffffffffffffffffffffffffffffffffffffffffffffff191614915050611f2a565b600190505b949350505050565b505050565b6008805490506009600083815260200190815260200160002081905550600881908060018154018082558091505060019003906000526020600020016000909190919091505550565b60006001611f8d84610c29565b611f979190612fa3565b905060006007600084815260200190815260200160002054905081811461207c576000600660008673ffffffffffffffffffffffffffffffffffffffff1673ffffffffffffffffffffffffffffffffffffffff168152602001908152602001600020600084815260200190815260200160002054905080600660008773ffffffffffffffffffffffffffffffffffffffff1673ffffffffffffffffffffffffffffffffffffffff168152602001908152602001600020600084815260200190815260200160002081905550816007600083815260200190815260200160002081905550505b6007600084815260200190815260200160002060009055600660008573ffffffffffffffffffffffffffffffffffffffff1673ffffffffffffffffffffffffffffffffffffffff16815260200190815260200160002060008381526020019081526020016000206000905550505050565b600060016008805490506121019190612fa3565b9050600060096000848152602001908152602001600020549050600060088381548110612157577f4e487b7100000000000000000000000000000000000000000000000000000000600052603260045260246000fd5b90600052602060002001549050806008838154811061219f577f4e487b7100000000000000000000000000000000000000000000000000000000600052603260045260246000fd5b906000526020600020018190555081600960008381526020019081526020016000208190555060096000858152602001908152602001600020600090556008805480612214577f4e487b7100000000000000000000000000000000000000000000000000000000600052603160045260246000fd5b6001900381819060005260206000200160009055905550505050565b600061223b83610c29565b905081600660008573ffffffffffffffffffffffffffffffffffffffff1673ffffffffffffffffffffffffffffffffffffffff168152602001908152602001600020600083815260200190815260200160002081905550806007600084815260200190815260200160002081905550505050565b600080823b905060008111915050919050565b8280546122ce9061308d565b90600052602060002090601f0160209004810192826122f05760008555612337565b82601f1061230957805160ff1916838001178555612337565b82800160010185558215612337579182015b8281111561233657825182559160200191906001019061231b565b5b5090506123449190612348565b5090565b5b80821115612361576000816000905550600101612349565b5090565b600061237861237384612e7a565b612e55565b90508281526020810184848401111561239057600080fd5b61239b84828561304b565b509392505050565b60006123b66123b184612eab565b612e55565b9050828152602081018484840111156123ce57600080fd5b6123d984828561304b565b509392505050565b6000813590506123f081613745565b92915050565b6000813590506124058161375c565b92915050565b60008135905061241a81613773565b92915050565b60008151905061242f81613773565b92915050565b600082601f83011261244657600080fd5b8135612456848260208601612365565b91505092915050565b600082601f83011261247057600080fd5b81356124808482602086016123a3565b91505092915050565b6000813590506124988161378a565b92915050565b6000602082840312156124b057600080fd5b60006124be848285016123e1565b91505092915050565b600080604083850312156124da57600080fd5b60006124e8858286016123e1565b92505060206124f9858286016123e1565b9150509250929050565b60008060006060848603121561251857600080fd5b6000612526868287016123e1565b9350506020612537868287016123e1565b925050604061254886828701612489565b9150509250925092565b6000806000806080858703121561256857600080fd5b6000612576878288016123e1565b9450506020612587878288016123e1565b935050604061259887828801612489565b925050606085013567ffffffffffffffff8111156125b557600080fd5b6125c187828801612435565b91505092959194509250565b600080604083850312156125e057600080fd5b60006125ee858286016123e1565b92505060206125ff858286016123f6565b9150509250929050565b6000806040838503121561261c57600080fd5b600061262a858286016123e1565b925050602083013567ffffffffffffffff81111561264757600080fd5b6126538582860161245f565b9150509250929050565b6000806040838503121561267057600080fd5b600061267e858286016123e1565b925050602061268f85828601612489565b9150509250929050565b6000602082840312156126ab57600080fd5b60006126b98482850161240b565b91505092915050565b6000602082840312156126d457600080fd5b60006126e284828501612420565b91505092915050565b6000602082840312156126fd57600080fd5b600061270b84828501612489565b91505092915050565b60006127208383612ad6565b60208301905092915050565b61273581612fd7565b82525050565b600061274682612eec565b6127508185612f1a565b935061275b83612edc565b8060005b8381101561278c5781516127738882612714565b975061277e83612f0d565b92505060018101905061275f565b5085935050505092915050565b6127a281612fe9565b82525050565b60006127b382612ef7565b6127bd8185612f2b565b93506127cd81856020860161305a565b6127d6816131c6565b840191505092915050565b60006127ec82612f02565b6127f68185612f3c565b935061280681856020860161305a565b61280f816131c6565b840191505092915050565b6000612827602b83612f3c565b9150612832826131d7565b604082019050919050565b600061284a603283612f3c565b915061285582613226565b604082019050919050565b600061286d602683612f3c565b915061287882613275565b604082019050919050565b6000612890601c83612f3c565b915061289b826132c4565b602082019050919050565b60006128b3602483612f3c565b91506128be826132ed565b604082019050919050565b60006128d6601983612f3c565b91506128e18261333c565b602082019050919050565b60006128f9602c83612f3c565b915061290482613365565b604082019050919050565b600061291c603883612f3c565b9150612927826133b4565b604082019050919050565b600061293f602a83612f3c565b915061294a82613403565b604082019050919050565b6000612962602983612f3c565b915061296d82613452565b604082019050919050565b6000612985602083612f3c565b9150612990826134a1565b602082019050919050565b60006129a8602c83612f3c565b91506129b3826134ca565b604082019050919050565b60006129cb602183612f3c565b91506129d682613519565b604082019050919050565b60006129ee602083612f3c565b91506129f982613568565b602082019050919050565b6000612a11602983612f3c565b9150612a1c82613591565b604082019050919050565b6000612a34602183612f3c565b9150612a3f826135e0565b604082019050919050565b6000612a57603183612f3c565b9150612a628261362f565b604082019050919050565b6000612a7a602c83612f3c565b9150612a858261367e565b604082019050919050565b6000612a9d601283612f3c565b9150612aa8826136cd565b602082019050919050565b6000612ac0603183612f3c565b9150612acb826136f6565b604082019050919050565b612adf81613041565b82525050565b612aee81613041565b82525050565b6000602082019050612b09600083018461272c565b92915050565b6000608082019050612b24600083018761272c565b612b31602083018661272c565b612b3e6040830185612ae5565b8181036060830152612b5081846127a8565b905095945050505050565b60006020820190508181036000830152612b75818461273b565b905092915050565b6000602082019050612b926000830184612799565b92915050565b60006020820190508181036000830152612bb281846127e1565b905092915050565b60006020820190508181036000830152612bd38161281a565b9050919050565b60006020820190508181036000830152612bf38161283d565b9050919050565b60006020820190508181036000830152612c1381612860565b9050919050565b60006020820190508181036000830152612c3381612883565b9050919050565b60006020820190508181036000830152612c53816128a6565b9050919050565b60006020820190508181036000830152612c73816128c9565b9050919050565b60006020820190508181036000830152612c93816128ec565b9050919050565b60006020820190508181036000830152612cb38161290f565b9050919050565b60006020820190508181036000830152612cd381612932565b9050919050565b60006020820190508181036000830152612cf381612955565b9050919050565b60006020820190508181036000830152612d1381612978565b9050919050565b60006020820190508181036000830152612d338161299b565b9050919050565b60006020820190508181036000830152612d53816129be565b9050919050565b60006020820190508181036000830152612d73816129e1565b9050919050565b60006020820190508181036000830152612d9381612a04565b9050919050565b60006020820190508181036000830152612db381612a27565b9050919050565b60006020820190508181036000830152612dd381612a4a565b9050919050565b60006020820190508181036000830152612df381612a6d565b9050919050565b60006020820190508181036000830152612e1381612a90565b9050919050565b60006020820190508181036000830152612e3381612ab3565b9050919050565b6000602082019050612e4f6000830184612ae5565b92915050565b6000612e5f612e70565b9050612e6b82826130bf565b919050565b6000604051905090565b600067ffffffffffffffff821115612e9557612e94613197565b5b612e9e826131c6565b9050602081019050919050565b600067ffffffffffffffff821115612ec657612ec5613197565b5b612ecf826131c6565b9050602081019050919050565b6000819050602082019050919050565b600081519050919050565b600081519050919050565b600081519050919050565b6000602082019050919050565b600082825260208201905092915050565b600082825260208201905092915050565b600082825260208201905092915050565b6000612f5882613041565b9150612f6383613041565b9250827fffffffffffffffffffffffffffffffffffffffffffffffffffffffffffffffff03821115612f9857612f97613139565b5b828201905092915050565b6000612fae82613041565b9150612fb983613041565b925082821015612fcc57612fcb613139565b5b828203905092915050565b6000612fe282613021565b9050919050565b60008115159050919050565b60007fffffffff0000000000000000000000000000000000000000000000000000000082169050919050565b600073ffffffffffffffffffffffffffffffffffffffff82169050919050565b6000819050919050565b82818337600083830152505050565b60005b8381101561307857808201518184015260208101905061305d565b83811115613087576000848401525b50505050565b600060028204905060018216806130a557607f821691505b602082108114156130b9576130b8613168565b5b50919050565b6130c8826131c6565b810181811067ffffffffffffffff821117156130e7576130e6613197565b5b80604052505050565b60006130fb82613041565b91507fffffffffffffffffffffffffffffffffffffffffffffffffffffffffffffffff82141561312e5761312d613139565b5b600182019050919050565b7f4e487b7100000000000000000000000000000000000000000000000000000000600052601160045260246000fd5b7f4e487b7100000000000000000000000000000000000000000000000000000000600052602260045260246000fd5b7f4e487b7100000000000000000000000000000000000000000000000000000000600052604160045260246000fd5b6000601f19601f8301169050919050565b7f455243373231456e756d657261626c653a206f776e657220696e646578206f7560008201527f74206f6620626f756e6473000000000000000000000000000000000000000000602082015250565b7f4552433732313a207472616e7366657220746f206e6f6e20455243373231526560008201527f63656976657220696d706c656d656e7465720000000000000000000000000000602082015250565b7f4f776e61626c653a206e6577206f776e657220697320746865207a65726f206160008201527f6464726573730000000000000000000000000000000000000000000000000000602082015250565b7f4552433732313a20746f6b656e20616c7265616479206d696e74656400000000600082015250565b7f4552433732313a207472616e7366657220746f20746865207a65726f2061646460008201527f7265737300000000000000000000000000000000000000000000000000000000602082015250565b7f4552433732313a20617070726f766520746f2063616c6c657200000000000000600082015250565b7f4552433732313a206f70657261746f7220717565727920666f72206e6f6e657860008201527f697374656e7420746f6b656e0000000000000000000000000000000000000000602082015250565b7f4552433732313a20617070726f76652063616c6c6572206973206e6f74206f7760008201527f6e6572206e6f7220617070726f76656420666f7220616c6c0000000000000000602082015250565b7f4552433732313a2062616c616e636520717565727920666f7220746865207a6560008201527f726f206164647265737300000000000000000000000000000000000000000000602082015250565b7f4552433732313a206f776e657220717565727920666f72206e6f6e657869737460008201527f656e7420746f6b656e0000000000000000000000000000000000000000000000602082015250565b7f4552433732313a206d696e7420746f20746865207a65726f2061646472657373600082015250565b7f4552433732313a20617070726f76656420717565727920666f72206e6f6e657860008201527f697374656e7420746f6b656e0000000000000000000000000000000000000000602082015250565b7f4f776e65722073686f756c64206f6e6c792062652061626c6520746f2062757260008201527f6e00000000000000000000000000000000000000000000000000000000000000602082015250565b7f4f776e61626c653a2063616c6c6572206973206e6f7420746865206f776e6572600082015250565b7f4552433732313a207472616e73666572206f6620746f6b656e2074686174206960008201527f73206e6f74206f776e0000000000000000000000000000000000000000000000602082015250565b7f4552433732313a20617070726f76616c20746f2063757272656e74206f776e6560008201527f7200000000000000000000000000000000000000000000000000000000000000602082015250565b7f4552433732313a207472616e736665722063616c6c6572206973206e6f74206f60008201527f776e6572206e6f7220617070726f766564000000000000000000000000000000602082015250565b7f455243373231456e756d657261626c653a20676c6f62616c20696e646578206f60008201527f7574206f6620626f756e64730000000000000000000000000000000000000000602082015250565b7f4d617820537570706c7920526561636865640000000000000000000000000000600082015250565b7f596f752063616e2774206c6f636b2e20596f7520617265206e6f74206f776e6560008201527f72206f662074686520636f6e7472616374000000000000000000000000000000602082015250565b61374e81612fd7565b811461375957600080fd5b50565b61376581612fe9565b811461377057600080fd5b50565b61377c81612ff5565b811461378757600080fd5b50565b61379381613041565b811461379e57600080fd5b5056fea26469706673582212201afab9085b648bac7a20ffd47582b481e164f601d2c71825ada74935a9b3bdb964736f6c63430008020033",
    "linkReferences": {},
    "deployedLinkReferences": {}
}